{
  "contractName": "DStock",
  "abi": [
    {
      "constant": true,
      "inputs": [
        {
          "name": "",
          "type": "address"
        }
      ],
      "name": "getMyId",
      "outputs": [
        {
          "name": "",
          "type": "uint8"
        }
      ],
      "payable": false,
      "stateMutability": "view",
      "type": "function"
    },
    {
      "constant": true,
      "inputs": [],
      "name": "tokensSold",
      "outputs": [
        {
          "name": "",
          "type": "uint256"
        }
      ],
      "payable": false,
      "stateMutability": "view",
      "type": "function"
    },
    {
      "constant": true,
      "inputs": [],
      "name": "tokenContract",
      "outputs": [
        {
          "name": "",
          "type": "address"
        }
      ],
      "payable": false,
      "stateMutability": "view",
      "type": "function"
    },
    {
      "constant": true,
      "inputs": [],
      "name": "personCount",
      "outputs": [
        {
          "name": "",
          "type": "uint8"
        }
      ],
      "payable": false,
      "stateMutability": "view",
      "type": "function"
    },
    {
      "constant": true,
      "inputs": [],
      "name": "tokenPrice",
      "outputs": [
        {
          "name": "",
          "type": "uint256"
        }
      ],
      "payable": false,
      "stateMutability": "view",
      "type": "function"
    },
    {
      "constant": true,
      "inputs": [
        {
          "name": "",
          "type": "uint256"
        }
      ],
      "name": "persons",
      "outputs": [
        {
          "name": "personId",
          "type": "uint256"
        },
        {
          "name": "personAddress",
          "type": "address"
        },
        {
          "name": "earning",
          "type": "uint256"
        },
        {
          "name": "tokenCount",
          "type": "uint256"
        },
        {
          "name": "initialized",
          "type": "bool"
        }
      ],
      "payable": false,
      "stateMutability": "view",
      "type": "function"
    },
    {
      "constant": true,
      "inputs": [
        {
          "name": "",
          "type": "uint256"
        }
      ],
      "name": "assets",
      "outputs": [
        {
          "name": "assetId",
          "type": "uint256"
        },
        {
          "name": "hash",
          "type": "string"
        },
        {
          "name": "creatorAddress",
          "type": "address"
        },
        {
          "name": "cost",
          "type": "uint256"
        },
        {
          "name": "soldCount",
          "type": "uint256"
        }
      ],
      "payable": false,
      "stateMutability": "view",
      "type": "function"
    },
    {
      "constant": true,
      "inputs": [],
      "name": "assetCount",
      "outputs": [
        {
          "name": "",
          "type": "uint256"
        }
      ],
      "payable": false,
      "stateMutability": "view",
      "type": "function"
    },
    {
      "inputs": [
        {
          "name": "_tokenContract",
          "type": "address"
        },
        {
          "name": "_tokenPrice",
          "type": "uint256"
        }
      ],
      "payable": false,
      "stateMutability": "nonpayable",
      "type": "constructor"
    },
    {
      "anonymous": false,
      "inputs": [
        {
          "indexed": false,
          "name": "_buyer",
          "type": "address"
        },
        {
          "indexed": false,
          "name": "_amount",
          "type": "uint256"
        }
      ],
      "name": "TokenBought",
      "type": "event"
    },
    {
      "anonymous": false,
      "inputs": [
        {
          "indexed": false,
          "name": "_buyer",
          "type": "address"
        },
        {
          "indexed": false,
          "name": "_amount",
          "type": "uint256"
        }
      ],
      "name": "TokenRedeemed",
      "type": "event"
    },
    {
      "anonymous": false,
      "inputs": [
        {
          "indexed": false,
          "name": "creator",
          "type": "address"
        },
        {
          "indexed": false,
          "name": "hash",
          "type": "string"
        }
      ],
      "name": "itemUploaded",
      "type": "event"
    },
    {
      "anonymous": false,
      "inputs": [
        {
          "indexed": false,
          "name": "hash",
          "type": "string"
        },
        {
          "indexed": false,
          "name": "cost",
          "type": "uint256"
        }
      ],
      "name": "itemPurchased",
      "type": "event"
    },
    {
      "constant": false,
      "inputs": [
        {
          "name": "_numberOfTokens",
          "type": "uint256"
        }
      ],
      "name": "buyTokens",
      "outputs": [],
      "payable": true,
      "stateMutability": "payable",
      "type": "function"
    },
    {
      "constant": false,
      "inputs": [
        {
          "name": "_to",
          "type": "address"
        },
        {
          "name": "_numberOfTokens",
          "type": "uint256"
        }
      ],
      "name": "redeemTokens",
      "outputs": [],
      "payable": false,
      "stateMutability": "nonpayable",
      "type": "function"
    },
    {
      "constant": false,
      "inputs": [
        {
          "name": "_hash",
          "type": "string"
        },
        {
          "name": "_cost",
          "type": "uint256"
        }
      ],
      "name": "uploadAsset",
      "outputs": [],
      "payable": false,
      "stateMutability": "nonpayable",
      "type": "function"
    },
    {
      "constant": false,
      "inputs": [
        {
          "name": "_assetId",
          "type": "uint256"
        }
      ],
      "name": "buyAsset",
      "outputs": [],
      "payable": false,
      "stateMutability": "nonpayable",
      "type": "function"
    },
    {
      "constant": true,
      "inputs": [],
      "name": "showAssets",
      "outputs": [
        {
          "name": "",
          "type": "uint256[]"
        }
      ],
      "payable": false,
      "stateMutability": "view",
      "type": "function"
    },
    {
      "constant": true,
      "inputs": [],
      "name": "showUploads",
      "outputs": [
        {
          "name": "",
          "type": "uint256[]"
        }
      ],
      "payable": false,
      "stateMutability": "view",
      "type": "function"
    },
    {
      "constant": true,
      "inputs": [],
      "name": "getId",
      "outputs": [
        {
          "name": "",
          "type": "uint8"
        }
      ],
      "payable": false,
      "stateMutability": "view",
      "type": "function"
    },
    {
      "constant": true,
      "inputs": [],
      "name": "getPerson",
      "outputs": [
        {
          "name": "a",
          "type": "address"
        },
        {
          "name": "b",
          "type": "uint256"
        },
        {
          "name": "c",
          "type": "uint256"
        }
      ],
      "payable": false,
      "stateMutability": "view",
      "type": "function"
    }
  ],
  "bytecode": "0x608060405234801561001057600080fd5b50604051604080611ee58339810180604052604081101561003057600080fd5b810190808051906020019092919080519060200190929190505050336000806101000a81548173ffffffffffffffffffffffffffffffffffffffff021916908373ffffffffffffffffffffffffffffffffffffffff16021790555081600160006101000a81548173ffffffffffffffffffffffffffffffffffffffff021916908373ffffffffffffffffffffffffffffffffffffffff160217905550806002819055505050611e01806100e46000396000f3fe60806040526004361061010f576000357c01000000000000000000000000000000000000000000000000000000009004806378495bf8116100a7578063cf35bdd011610076578063cf35bdd014610535578063dad7f11014610631578063df2e2d221461068c578063eafe7a74146106f85761010f565b806378495bf8146103d95780637ff9b5961461040a5780638ec4dc9514610435578063a2f9eac61461049a5761010f565b80633610724e116100e35780633610724e146102f8578063518ab2a81461032657806355a373d6146103515780635d1ca631146103a85761010f565b806288759a14610114578063110d35b81461018057806328ed8400146101bb578063294386b414610226575b600080fd5b34801561012057600080fd5b50610129610723565b6040518080602001828103825283818151815260200191508051906020019060200280838360005b8381101561016c578082015181840152602081019050610151565b505050509050019250505060405180910390f35b34801561018c57600080fd5b506101b9600480360360208110156101a357600080fd5b81019080803590602001909291905050506107de565b005b3480156101c757600080fd5b5061020a600480360360208110156101de57600080fd5b81019080803573ffffffffffffffffffffffffffffffffffffffff169060200190929190505050610b98565b604051808260ff1660ff16815260200191505060405180910390f35b34801561023257600080fd5b506102f66004803603604081101561024957600080fd5b810190808035906020019064010000000081111561026657600080fd5b82018360208201111561027857600080fd5b8035906020019184600183028401116401000000008311171561029a57600080fd5b91908080601f016020809104026020016040519081016040528093929190818152602001838380828437600081840152601f19601f82011690508083019250505050505050919291929080359060200190929190505050610bb8565b005b6103246004803603602081101561030e57600080fd5b8101908080359060200190929190505050610f00565b005b34801561033257600080fd5b5061033b611216565b6040518082815260200191505060405180910390f35b34801561035d57600080fd5b5061036661121c565b604051808273ffffffffffffffffffffffffffffffffffffffff1673ffffffffffffffffffffffffffffffffffffffff16815260200191505060405180910390f35b3480156103b457600080fd5b506103bd611242565b604051808260ff1660ff16815260200191505060405180910390f35b3480156103e557600080fd5b506103ee611296565b604051808260ff1660ff16815260200191505060405180910390f35b34801561041657600080fd5b5061041f6112a9565b6040518082815260200191505060405180910390f35b34801561044157600080fd5b5061044a6112af565b604051808473ffffffffffffffffffffffffffffffffffffffff1673ffffffffffffffffffffffffffffffffffffffff168152602001838152602001828152602001935050505060405180910390f35b3480156104a657600080fd5b506104d3600480360360208110156104bd57600080fd5b8101908080359060200190929190505050611411565b604051808681526020018573ffffffffffffffffffffffffffffffffffffffff1673ffffffffffffffffffffffffffffffffffffffff168152602001848152602001838152602001821515151581526020019550505050505060405180910390f35b34801561054157600080fd5b5061056e6004803603602081101561055857600080fd5b8101908080359060200190929190505050611474565b60405180868152602001806020018573ffffffffffffffffffffffffffffffffffffffff1673ffffffffffffffffffffffffffffffffffffffff168152602001848152602001838152602001828103825286818151815260200191508051906020019080838360005b838110156105f25780820151818401526020810190506105d7565b50505050905090810190601f16801561061f5780820380516001836020036101000a031916815260200191505b50965050505050505060405180910390f35b34801561063d57600080fd5b5061068a6004803603604081101561065457600080fd5b81019080803573ffffffffffffffffffffffffffffffffffffffff16906020019092919080359060200190929190505050611562565b005b34801561069857600080fd5b506106a1611893565b6040518080602001828103825283818151815260200191508051906020019060200280838360005b838110156106e45780820151818401526020810190506106c9565b505050509050019250505060405180910390f35b34801561070457600080fd5b5061070d61194e565b6040518082815260200191505060405180910390f35b606060076000600860003373ffffffffffffffffffffffffffffffffffffffff1673ffffffffffffffffffffffffffffffffffffffff16815260200190815260200160002060009054906101000a900460ff1660ff1681526020019081526020016000206004018054806020026020016040519081016040528092919081815260200182805480156107d457602002820191906000526020600020905b8154815260200190600101908083116107c0575b5050505050905090565b600081101580156107f0575060045481105b610862576040517f08c379a00000000000000000000000000000000000000000000000000000000081526004018080602001828103825260138152602001807f417373657420636f756e7420696e76616c69640000000000000000000000000081525060200191505060405180910390fd5b61086b33611954565b600160009054906101000a900473ffffffffffffffffffffffffffffffffffffffff1673ffffffffffffffffffffffffffffffffffffffff166323b872dd336006600085815260200190815260200160002060020160009054906101000a900473ffffffffffffffffffffffffffffffffffffffff1660066000868152602001908152602001600020600301546040518463ffffffff167c0100000000000000000000000000000000000000000000000000000000028152600401808473ffffffffffffffffffffffffffffffffffffffff1673ffffffffffffffffffffffffffffffffffffffff1681526020018373ffffffffffffffffffffffffffffffffffffffff1673ffffffffffffffffffffffffffffffffffffffff1681526020018281526020019350505050602060405180830381600087803b1580156109b057600080fd5b505af11580156109c4573d6000803e3d6000fd5b505050506040513d60208110156109da57600080fd5b81019080805190602001909291905050506109f457600080fd5b600660008281526020019081526020016000206004016000815480929190600101919050555060076000600860003373ffffffffffffffffffffffffffffffffffffffff1673ffffffffffffffffffffffffffffffffffffffff16815260200190815260200160002060009054906101000a900460ff1660ff1681526020019081526020016000206005018190806001815401808255809150509060018203906000526020600020016000909192909190915055507ffcf77f9d519ad3c98bd0d8b082918c0a1a52295d6b8bf6376dd5beace508dfde6006600083815260200190815260200160002060010160066000848152602001908152602001600020600301546040518080602001838152602001828103825284818154600181600116156101000203166002900481526020019150805460018160011615610100020316600290048015610b865780601f10610b5b57610100808354040283529160200191610b86565b820191906000526020600020905b815481529060010190602001808311610b6957829003601f168201915b5050935050505060405180910390a150565b60086020528060005260406000206000915054906101000a900460ff1681565b6000825111610c2f576040517f08c379a00000000000000000000000000000000000000000000000000000000081526004018080602001828103825260148152602001807f486173682063616e6e6f7420626520656d70747900000000000000000000000081525060200191505060405180910390fd5b6000811415610ca6576040517f08c379a00000000000000000000000000000000000000000000000000000000081526004018080602001828103825260108152602001807f436f73742063616e6e6f7420626520300000000000000000000000000000000081525060200191505060405180910390fd5b610caf33611954565b6040518060a0016040528060045481526020018381526020013373ffffffffffffffffffffffffffffffffffffffff1681526020018281526020016000815250600660006004548152602001908152602001600020600082015181600001556020820151816001019080519060200190610d2a929190611cbe565b5060408201518160020160006101000a81548173ffffffffffffffffffffffffffffffffffffffff021916908373ffffffffffffffffffffffffffffffffffffffff160217905550606082015181600301556080820151816004015590505060076000600860003373ffffffffffffffffffffffffffffffffffffffff1673ffffffffffffffffffffffffffffffffffffffff16815260200190815260200160002060009054906101000a900460ff1660ff16815260200190815260200160002060040160045490806001815401808255809150509060018203906000526020600020016000909192909190915055506004600081548092919060010191905055507f9c5e23d3ed1c67580eb3ff1cd6db082eb04518f766348e760b0cfde64eea04bb3383604051808373ffffffffffffffffffffffffffffffffffffffff1673ffffffffffffffffffffffffffffffffffffffff16815260200180602001828103825283818151815260200191508051906020019080838360005b83811015610ec1578082015181840152602081019050610ea6565b50505050905090810190601f168015610eee5780820380516001836020036101000a031916815260200191505b50935050505060405180910390a15050565b610f0c81600254611c92565b3414610f1757600080fd5b80600160009054906101000a900473ffffffffffffffffffffffffffffffffffffffff1673ffffffffffffffffffffffffffffffffffffffff166370a082316000809054906101000a900473ffffffffffffffffffffffffffffffffffffffff166040518263ffffffff167c0100000000000000000000000000000000000000000000000000000000028152600401808273ffffffffffffffffffffffffffffffffffffffff1673ffffffffffffffffffffffffffffffffffffffff16815260200191505060206040518083038186803b158015610ff457600080fd5b505afa158015611008573d6000803e3d6000fd5b505050506040513d602081101561101e57600080fd5b8101908080519060200190929190505050101561103a57600080fd5b600160009054906101000a900473ffffffffffffffffffffffffffffffffffffffff1673ffffffffffffffffffffffffffffffffffffffff1663a9059cbb33836040518363ffffffff167c0100000000000000000000000000000000000000000000000000000000028152600401808373ffffffffffffffffffffffffffffffffffffffff1673ffffffffffffffffffffffffffffffffffffffff16815260200182815260200192505050602060405180830381600087803b1580156110ff57600080fd5b505af1158015611113573d6000803e3d6000fd5b505050506040513d602081101561112957600080fd5b810190808051906020019092919050505061118f576040517f08c379a0000000000000000000000000000000000000000000000000000000008152600401808060200182810382526025815260200180611db16025913960400191505060405180910390fd5b61119833611954565b806003600082825401925050819055507fa3a187cfc249a33f6c4046e8d418886eea8564f9dd214a32aa5ba08d9602b5433382604051808373ffffffffffffffffffffffffffffffffffffffff1673ffffffffffffffffffffffffffffffffffffffff1681526020018281526020019250505060405180910390a150565b60035481565b600160009054906101000a900473ffffffffffffffffffffffffffffffffffffffff1681565b6000600860003373ffffffffffffffffffffffffffffffffffffffff1673ffffffffffffffffffffffffffffffffffffffff16815260200190815260200160002060009054906101000a900460ff16905090565b600560009054906101000a900460ff1681565b60025481565b600080600060076000600860003373ffffffffffffffffffffffffffffffffffffffff1673ffffffffffffffffffffffffffffffffffffffff16815260200190815260200160002060009054906101000a900460ff1660ff16815260200190815260200160002060010160009054906101000a900473ffffffffffffffffffffffffffffffffffffffff1660076000600860003373ffffffffffffffffffffffffffffffffffffffff1673ffffffffffffffffffffffffffffffffffffffff16815260200190815260200160002060009054906101000a900460ff1660ff1681526020019081526020016000206002015460076000600860003373ffffffffffffffffffffffffffffffffffffffff1673ffffffffffffffffffffffffffffffffffffffff16815260200190815260200160002060009054906101000a900460ff1660ff16815260200190815260200160002060030154925092509250909192565b60076020528060005260406000206000915090508060000154908060010160009054906101000a900473ffffffffffffffffffffffffffffffffffffffff16908060020154908060030154908060060160009054906101000a900460ff16905085565b6006602052806000526040600020600091509050806000015490806001018054600181600116156101000203166002900480601f0160208091040260200160405190810160405280929190818152602001828054600181600116156101000203166002900480156115265780601f106114fb57610100808354040283529160200191611526565b820191906000526020600020905b81548152906001019060200180831161150957829003601f168201915b5050505050908060020160009054906101000a900473ffffffffffffffffffffffffffffffffffffffff16908060030154908060040154905085565b80600160009054906101000a900473ffffffffffffffffffffffffffffffffffffffff1673ffffffffffffffffffffffffffffffffffffffff166370a08231336040518263ffffffff167c0100000000000000000000000000000000000000000000000000000000028152600401808273ffffffffffffffffffffffffffffffffffffffff1673ffffffffffffffffffffffffffffffffffffffff16815260200191505060206040518083038186803b15801561161e57600080fd5b505afa158015611632573d6000803e3d6000fd5b505050506040513d602081101561164857600080fd5b8101908080519060200190929190505050101561166457600080fd5b600160009054906101000a900473ffffffffffffffffffffffffffffffffffffffff1673ffffffffffffffffffffffffffffffffffffffff166323b872dd336000809054906101000a900473ffffffffffffffffffffffffffffffffffffffff16846040518463ffffffff167c0100000000000000000000000000000000000000000000000000000000028152600401808473ffffffffffffffffffffffffffffffffffffffff1673ffffffffffffffffffffffffffffffffffffffff1681526020018373ffffffffffffffffffffffffffffffffffffffff1673ffffffffffffffffffffffffffffffffffffffff1681526020018281526020019350505050602060405180830381600087803b15801561177e57600080fd5b505af1158015611792573d6000803e3d6000fd5b505050506040513d60208110156117a857600080fd5b81019080805190602001909291905050506117c257600080fd5b8173ffffffffffffffffffffffffffffffffffffffff166108fc6117e883600254611c92565b9081150290604051600060405180830381858888f19350505050158015611813573d6000803e3d6000fd5b50806003600082825403925050819055507fce4385affa8ad2cbec45b1660c6f6afcb691bf0a7a73ebda096ee1dfb670fe6f3382604051808373ffffffffffffffffffffffffffffffffffffffff1673ffffffffffffffffffffffffffffffffffffffff1681526020018281526020019250505060405180910390a15050565b606060076000600860003373ffffffffffffffffffffffffffffffffffffffff1673ffffffffffffffffffffffffffffffffffffffff16815260200190815260200160002060009054906101000a900460ff1660ff16815260200190815260200160002060050180548060200260200160405190810160405280929190818152602001828054801561194457602002820191906000526020600020905b815481526020019060010190808311611930575b5050505050905090565b60045481565b6001151560076000600860008573ffffffffffffffffffffffffffffffffffffffff1673ffffffffffffffffffffffffffffffffffffffff16815260200190815260200160002060009054906101000a900460ff1660ff16815260200190815260200160002060060160009054906101000a900460ff16151514156119d857611c8f565b6005600081819054906101000a900460ff168092919060010191906101000a81548160ff021916908360ff16021790555050600560009054906101000a900460ff16600860008373ffffffffffffffffffffffffffffffffffffffff1673ffffffffffffffffffffffffffffffffffffffff16815260200190815260200160002060006101000a81548160ff021916908360ff160217905550600560009054906101000a900460ff1660ff1660076000600560009054906101000a900460ff1660ff168152602001908152602001600020600001819055508060076000600560009054906101000a900460ff1660ff16815260200190815260200160002060010160006101000a81548173ffffffffffffffffffffffffffffffffffffffff021916908373ffffffffffffffffffffffffffffffffffffffff160217905550600060076000600560009054906101000a900460ff1660ff16815260200190815260200160002060020181905550600060076000600560009054906101000a900460ff1660ff16815260200190815260200160002060030181905550600160076000600560009054906101000a900460ff1660ff16815260200190815260200160002060060160006101000a81548160ff0219169083151502179055506000604051908082528060200260200182016040528015611be45781602001602082028038833980820191505090505b5060076000600560009054906101000a900460ff1660ff1681526020019081526020016000206004019080519060200190611c20929190611d3e565b506000604051908082528060200260200182016040528015611c515781602001602082028038833980820191505090505b5060076000600560009054906101000a900460ff1660ff1681526020019081526020016000206005019080519060200190611c8d929190611d3e565b505b50565b600080821480611caf5750828283850292508281611cac57fe5b04145b611cb857600080fd5b92915050565b828054600181600116156101000203166002900490600052602060002090601f016020900481019282601f10611cff57805160ff1916838001178555611d2d565b82800160010185558215611d2d579182015b82811115611d2c578251825591602001919060010190611d11565b5b509050611d3a9190611d8b565b5090565b828054828255906000526020600020908101928215611d7a579160200282015b82811115611d79578251825591602001919060010190611d5e565b5b509050611d879190611d8b565b5090565b611dad91905b80821115611da9576000816000905550600101611d91565b5090565b9056fe546f6b656e2073686f756c64206265207472616e7366657220746f20746865206275796572a165627a7a72305820ae923f6e3a6e18fe3233b3704208a10fa3f74226a087a6f6ac340c18d421a5d00029",
  "source": "pragma solidity ^0.5.6;\r\n\r\nimport \"./DStockToken.sol\";\r\n\r\ncontract DStock{\r\n    \r\n    address admin;\r\n    DStockToken public tokenContract;\r\n    uint256 public tokenPrice;\r\n    uint256 public tokensSold;\r\n\r\n    event TokenBought(address _buyer, uint256 _amount);\r\n    event TokenRedeemed(address _buyer, uint256 _amount);\r\n\r\n    uint256 public assetCount;\r\n    uint8 public personCount;\r\n    \r\n    struct asset{\r\n        uint256 assetId;\r\n        string hash;\r\n        address creatorAddress;\r\n        uint256 cost;\r\n        uint256 soldCount;\r\n    }\r\n    \r\n    struct person{\r\n        uint256 personId;\r\n        address personAddress;\r\n        uint256 earning;\r\n        uint256 tokenCount;\r\n        uint256[] assetsUploaded;\r\n        uint256[] assetsBought;\r\n        bool initialized;\r\n    }\r\n    \r\n    mapping (uint256=> asset) public assets;\r\n    mapping (uint256=> person) public persons;\r\n    mapping (address=> uint8) public getMyId;\r\n    \r\n    event itemUploaded(address creator, string hash);\r\n    event itemPurchased(string hash, uint256 cost);\r\n    \r\n    constructor(DStockToken _tokenContract, uint256 _tokenPrice) public {\r\n        admin = msg.sender;\r\n        tokenContract = _tokenContract;\r\n        tokenPrice = _tokenPrice;\r\n    }\r\n\r\n    function initializePerson(address _sender) private {\r\n        if(persons[getMyId[_sender]].initialized == true) { return; }\r\n        personCount++;\r\n        getMyId[_sender] = personCount;\r\n        persons[personCount].personId = personCount;\r\n        persons[personCount].personAddress = _sender;\r\n        persons[personCount].earning= 0;\r\n        persons[personCount].tokenCount = 0 ;\r\n        persons[personCount].initialized = true;\r\n        persons[personCount].assetsUploaded = new uint256[](0);\r\n        persons[personCount].assetsBought = new uint256[](0);\r\n    }\r\n    \r\n\r\n    function multiply(uint256 x, uint256 y) internal pure returns (uint256 z) {\r\n        require(y == 0 || (z = x * y) / y == x);\r\n    }\r\n\r\n    function buyTokens(uint256 _numberOfTokens) public payable {\r\n        require(msg.value == multiply(_numberOfTokens, tokenPrice));//should be equal ideally\r\n        require(tokenContract.balanceOf(admin) >= _numberOfTokens);\r\n        require(tokenContract.transfer(msg.sender, _numberOfTokens),\"Token should be transfer to the buyer\");\r\n        initializePerson(msg.sender);\r\n\r\n        tokensSold += _numberOfTokens;\r\n        emit TokenBought(msg.sender, _numberOfTokens);\r\n    }\r\n    \r\n    function redeemTokens(address payable _to, uint256 _numberOfTokens ) public{ //payable not used\r\n        require(tokenContract.balanceOf(msg.sender) >= _numberOfTokens);\r\n        require(tokenContract.transferFrom(msg.sender, admin, _numberOfTokens)); \r\n        _to.transfer(multiply(_numberOfTokens, tokenPrice));\r\n        \r\n        tokensSold -= _numberOfTokens;\r\n        emit TokenRedeemed(msg.sender, _numberOfTokens);\r\n    }\r\n    \r\n    \r\n    function uploadAsset(string memory _hash, uint256 _cost) public {\r\n        require(bytes(_hash).length > 0,\"Hash cannot be empty\");\r\n        require(_cost != 0, \"Cost cannot be 0\");\r\n        initializePerson(msg.sender);\r\n        assets[assetCount] = asset(assetCount,_hash,msg.sender,_cost,0);\r\n        persons[getMyId[msg.sender]].assetsUploaded.push(assetCount);\r\n        assetCount++;\r\n        emit itemUploaded(msg.sender,_hash);\r\n    }\r\n    \r\n    function buyAsset(uint256 _assetId) public {\r\n        require( _assetId>= 0 && _assetId < assetCount,\"Asset count invalid\");\r\n        initializePerson(msg.sender);\r\n        require(tokenContract.transferFrom(msg.sender, assets[_assetId].creatorAddress, assets[_assetId].cost));\r\n        assets[_assetId].soldCount++;\r\n        persons[getMyId[msg.sender]].assetsBought.push(_assetId);\r\n        emit itemPurchased(assets[_assetId].hash , assets[_assetId].cost);\r\n    }\r\n\r\n    function showAssets() public view returns (uint256[] memory){\r\n     return persons[getMyId[msg.sender]].assetsBought;   \r\n    }\r\n    \r\n    function showUploads() public view returns (uint256[] memory){\r\n     return persons[getMyId[msg.sender]].assetsUploaded;   \r\n    }    \r\n    \r\n    function getId() public view returns (uint8){\r\n     return getMyId[msg.sender];\r\n    }\r\n\r\n    // function getAsset() public view returns (uint8){\r\n    //  return persons[getId()];\r\n    // }\r\n\r\n    function getPerson() public view returns(address a, uint b, uint c){\r\n     return (persons[getMyId[msg.sender]].personAddress, persons[getMyId[msg.sender]].earning, persons[getMyId[msg.sender]].tokenCount);\r\n    }\r\n}",
  "sourcePath": "D:/Ash/Projects/D-Stock/DStock-main/contracts/DStock.sol",
  "compiler": {
    "name": "solc",
    "version": "0.5.6+commit.b259423e.Emscripten.clang"
  },
  "schemaVersion": "3.4.1",
  "updatedAt": "2021-06-09T13:37:02.204Z",
  "networkType": "ethereum",
  "devdoc": {
    "methods": {}
  },
  "userdoc": {
    "methods": {}
  }
}